:03000000020006F5
:03005F0002000399
:0300030002006296
:10006200750C10758202120448750D00758200121B
:1000720004CA7497C0E0740FC0E07480C0E0120636
:1000820079158115811581750D007582011204CAD9
:1000920074B0C0E0740FC0E07480C0E074A7C0E028
:1000A200740FC0E07480C0E0120679E58124FAF58D
:1000B200817EFF7F7F8E048F051EBEFF011FEC4DE8
:1000C20060757582FFC007C00612034DD006D007C7
:1000D200750D0A758201C007C0061204CA74BEC03B
:1000E200E0740FC0E07480C0E074BBC0E0740FC065
:1000F200E07480C0E0120679E58124FAF581D00629
:10010200D007750D0A758201C007C0061204CAD055
:1001120006D007C007C006C006C00774C5C0E07499
:100122000FC0E07480C0E0120679E58124FBF581FE
:09013200D006D0070200B780FEE0
:100F970054484953204953204C494E45203031008D
:100FA700257320202020202000496E74207465734B
:100FB700743A20002573002020202020200025647B
:010FC7000029
:10013B00AF82C2A7C2A6C2A5EF23540124FF92939C
:10014B00EF2323540124FF9292EFA2E5E43324FF23
:10015B009291EFC4540124FF9290D2A7C2A7EFA2B1
:10016B00E3E43324FF9293EF0303540124FF9292B1
:10017B00EF03540124FF9291EF540124FF9290D28C
:10018B00A7C2A722AF82C2A7C2A6C2A5EF23540162
:10019B0024FF9293EF2323540124FF9292EFA2E5C5
:1001AB00E43324FF9291EFC4540124FF9290D2A721
:1001BB00C2A722AF82C2A7C2A6D2A5EF23540124A5
:1001CB00FF9293EF2323540124FF9292EFA2E5E4D5
:1001DB003324FF9291EFC4540124FF9290D2A7C213
:1001EB00A7EFA2E3E43324FF9293EF03035401241C
:1001FB00FF9292EF03540124FF9291EF540124FFDD
:10020B009290D2A7C2A722D293D292D291D290C26D
:10021B00A7D2A6C2A5D2A73093067E807F0080040A
:10022B007E007F003092067D407F0080047D007F42
:10023B0000ED4EFF3091067D207E0080047D007E18
:10024B0000ED42073090067D107E0080047D007E1D
:10025B0000ED4207C2A7D2A73093067D087E00802F
:10026B00047D007E00ED42073092067D047E008007
:10027B00047D007E00ED42073091067D027E0080FA
:10028B00047D007E00ED42073090067D017E0080EC
:10029B00047D007E00ED4FF582C2A722D293D2924D
:1002AB00D291D290C2A7D2A6D2A5D2A73093067E66
:1002BB00807F0080047E007F003092067D407F00AF
:1002CB0080047D007F00ED4EFF3091067D207E0087
:1002DB0080047D007E00ED42073090067D107E008D
:1002EB0080047D007E00ED4207C2A7D2A7309306A3
:1002FB007D087E0080047D007E00ED420730920673
:10030B007D047E0080047D007E00ED420730910667
:10031B007D027E0080047D007E00ED42073090065A
:10032B007D017E0080047D007E00ED4FF582C2A72B
:10033B0022120212E58220E7F822AF82EF14FF703F
:10034B00FB22AF82EF14FF60097EFFEE14FE60F418
:10035B0080F92275820112013B02033C7582021265
:10036B00013B02033CAF82741F5F4420F5821201F4
:10037B003B02033CAF8274035F4404F58212013BE2
:10038B0002033CAF8274075F4408F58212013B0203
:10039B00033CAF82740C5F4410F58212013B0203E5
:1003AB003CAD82AE83AFF07C00C3EC950A502CECD5
:1003BB002DF9E43EFA8F0389828A838BF0120F7733
:1003CB00F582C007C006C005C0041201BE12033C73
:1003DB00D004D005D006D0070C80CE22AF8274801B
:1003EB004FF58212013B02033CAD82AE83AFF07C32
:1003FB0000C3EC950B502CEC2DF9E43EFA8F0389DE
:10040B00828A838BF0120F77F582C007C006C00576
:10041B00C0041201BE12033CD004D005D006D00795
:10042B000C80CE22AF82743F5F4440F58212013BB9
:10043B0002033C120212E582547FF58222AF82C284
:10044B00A5C2A7C2A6850C088F09758237C00712F3
:10045B00034D75823012018F75820F12034D758219
:10046B003012018F75825D12034575823012018F38
:10047B0012033C75822012018FD007BF01087582D1
:10048B0000120370800675820812037075820012C9
:10049B00038E12035E75820212037F7582040203C0
:1004AB008E02035E02036775820402038E7582005F
:1004BB0002038E75820702038E75820402038EAFD0
:1004CB00827402B5090FBF0108AE0D74402EFE8079
:1004DB0034AE0D80307404B50929BF01028018BFFA
:1004EB000202800BBF0318AF0D74542FFE8016AFA2
:1004FB000D74142FFE800EAF0D74402FFE8006AED0
:10050B000D8002AE0D8E820203E7AD82AE83AFF09B
:10051B00C007C006C00512043EAC82D005D006D081
:10052B00077404B5090280030205D4EC24EC401CCB
:10053B008D828E838FF0E4120F27A90EAA0FAB10BA
:10054B008C0089828A838BF0E8020F27BC14004051
:10055B0024EC24D8401F8D828E838FF07402120FEF
:10056B0027A90EAA0FAB108C00E824EC89828A8392
:10057B008BF0020F27BC40004024EC24AC401F8DB5
:10058B00828E838FF07401120F27A90EAA0FAB1066
:10059B008C00E824C089828A838BF0020F27BC541D
:1005AB0000500122EC24985001228D828E838FF013
:1005BB007403120F27A90EAA0FAB108C00E824AC02
:1005CB0089828A838BF0020F277402B5094AEC24C7
:1005DB00D8401C8D828E838FF0E4120F27A90EAAB0
:1005EB000FAB108C0089828A838BF0E8020F27BC3B
:1005FB004000403EEC249840398D828E838FF074FE
:10060B0001120F27A90EAA0FAB108C00E824C0898A
:10061B00828A838BF0020F278D828E838FF0E412F8
:10062B000F27AD0EAE0FAF108D828E838FF0EC12B5
:10063B000F2722E582700675820802039D75820CD6
:10064B0012039D22E5827005F58202039D758204DB
:10065B0012039D221201BE02033C85110A0203AC58
:10066B00C03F85813F1201BE12033CD03F22C03FE9
:10067B00E581F53F24FBFF8F25E4F51FF520F521E0
:10068B00E53F24FBF8862208862308862490066B18
:06069B0012073FD03F22D0
:06003500E478FFF6D8FD9F
:100013007900E94400601B7A00900FD3780175A042
:1000230000E493F2A308B8000205A0D9F4DAF2754C
:02003300A0FF2C
:1006A100AF82C015C016C0171206AE8007C013C0B6
:1006B100148F8222158115811581051DE4B51D0256
:1006C100051E22AF8274302FFF24C6500B74072FF2
:1006D100FFE51260034307208F820206A1E582FF36
:1006E100C4540FF582C0071206C4D007740F5FF51A
:1006F100820206C4858240AB18AC19AD1AAE1BAAA2
:100701001C7542208A07EF2FF541EE235401454124
:10071100FAEB2BFBEC33FCED33FDEE33FEC3EA9534
:10072100404008EAC39540FA430301E54214FF8FB4
:100731004270D18B188C198D1A8E1B8A1C228582CE
:1007410013858314851F15852016852117E4F51D52
:10075100F51EAD22AE23AF248D828E838FF0120F52
:1007610077FC74012DF522E43EF5238F24ECFF7014
:1007710003020F20BF25028003020F187E007D00B7
:100781008E268E277A007B008E287C008E29E4F548
:1007910031F532752AFF752BFF8522338523348588
:1007A10024358533828534838535F0120F77F5360C
:1007B100A38582338583348533228534238535248B
:1007C1007425B536088536821206A1808574D02538
:1007D100364003020881E53624C6500302088174BD
:1007E100FFB52A55B52B5285314085324190000A1B
:1007F100C006C005C004C003C002120F4285823783
:10080100858338D002D003D004D005D0068536398F
:10081100753A00E5392537F539E53A3538F53AE5E0
:100821003924D0F531E53A34FFF532E5314532600E
:10083100030207A37D010207A3852A40852B41906E
:10084100000AC006C005C004C003C002120F4285E1
:10085100823985833AD002D003D004D005D00685F1
:100861003637753800E5372539F539E538353AF544
:100871003AE53924D0F52AE53A34FFF52B0207A3EE
:10088100742EB5361574FFB52A05B52B0280030207
:1008910007A3E4F52AF52B0207A3749F2536500E12
:1008A100E536248540085336DF7512018003751241
:1008B100007420B5360302094D742BB536030209C5
:1008C10047742DB5360280797442B5360302095357
:1008D1007443B5360302095E7444B53603020BABAB
:1008E1007446B53603020BC17448B536030207A33B
:1008F1007449B53603020BAB744AB536030207A33C
:10090100744CB536028050744FB53603020BB27485
:1009110050B53603020AF67453B536028076745424
:10092100B536030207A37455B53603020BB77458E5
:10093100B53603020BBC745AB536030207A3020B8A
:10094100C57E010207A37526010207A375270102CF
:1009510007A37B010207A37528010207A3EB600A25
:10096100E52514F989258739800DE52524FEF5371C
:10097100853725A9378739853982C006C005C00466
:10098100C003C0021206A1D002D003D004D005D00A
:1009910006020BE7E52524FDF539853925A93987B7
:1009A1003309873409873519198533188534198531
:1009B100351A8533828534838535F0C006C005C07C
:1009C10004C003C002120F5F85823985833AD002C9
:1009D100D003D004D005D00674FFB52A09B52B0683
:1009E10085392A853A2BEE704FC3E5399531E53AC1
:1009F10095325044E531C39539F537E532953AF5ED
:100A010038853733853834153774FFB537021538D3
:100A1100E5334534601C758220C006C005C004C0A2
:100A210003C0021206A1D002D003D004D005D00623
:100A310080CF853731853832852A37852B3885181F
:100A410082851983851AF0120F77F53385332E606D
:100A51004FC3E4953774808538F063F08095F0508A
:100A61003F153774FFB537021538852E82C006C091
:100A710005C004C003C0021206A1D002D003D004F5
:100A8100D005D006851833851934851A350533E428
:100A9100B53302053485331885341985351A809E9E
:100AA100EE7003020BE7C3E5399531E53A95324023
:100AB10003020BE7E531C39539F539E532953AF58E
:100AC1003A853937853A38153974FFB53902153AFF
:100AD100E53745387003020BE1758220C006C00579
:100AE100C004C003C0021206A1D002D003D004D0BA
:100AF10005D00680CCE52524FDF537853725A937B6
:100B010087330987340987351919853318853419CD
:100B110085351A851A2F7480252F50057537438026
:100B21001974A0252F5005753750800E74C0252FDC
:100B310050057537498003753758853782C006C01F
:100B410005C004C003C0021206A175823A1206A1B3
:100B51007582301206A17582781206A1D002D003E7
:100B6100D004D005D0067449B5370280217450B540
:100B71003702801A851982C006C005C004C003C0AF
:100B8100021206DED002D003D004D005D0068518AB
:100B910082C006C005C004C003C0021206DED00236
:100BA100D003D004D005D006803C7A0175290A8093
:100BB10035752908803075290A802B752910802602
:100BC1007C018022853682C006C005C004C003C0F6
:100BD100021206A1D002D003D004D005D0068006AF
:100BE100853931853A32EC6068E52524FCFC8C2599
:100BF1008C01873B09873C09873D09873E191919F3
:100C0100853B18853C19853D1A853E1B7518C875AD
:100C1100190F751A8085183B85193C851A3D740199
:100C2100253BF533E4353CF534853D358533188571
:100C3100341985351A853B82853C83853DF0120F39
:100C410077FC8C3B7003020753853B821206A1801F
:100C5100C4E5297003020753EB603FE52514F989C8
:100C61002587048C3B753C00753D00753E00853B36
:100C710018853C19853D1A853E1BEA6003020D0467
:100C810085183B753C00753D00753E00853B188518
:100C91003C19853D1A853E1B8069E5286025E525BF
:100CA10024FCFC8C258C01873B09873C09873D0985
:100CB100873E191919853B18853C19853D1A853ED2
:100CC1001B8040E52524FEFC8C258C0187030987C8
:100CD10004198B3BECF53C3395E0F53DF53E853B46
:100CE10018853C19853D1A853E1BEA701685183B0F
:100CF10085193CF53DF53E853B18853C19853D1A26
:100D0100853E1BEA602AE51B30E723C3E49518F50D
:100D11003BE49519F53CE4951AF53DE4951BF53E48
:100D2100853B18853C19853D1A853E1B80027A005A
:100D31007C017948E4F53BF53C751C00852982C0AE
:100D410006C005C004C002C0011206F5D001D002E0
:100D5100D004D005D006EC700DE51CC4F539E7FBD5
:100D61004539F7198002A71C053BE4B53B02053C58
:100D7100ECB40100E433FCE5184519451A451B7034
:100D8100B88930853B2C853C2DE5314532700575A0
:100D91003101F532ED7043EE704085313B85323CD7
:100DA100AB2C0B8B39753A00C3E539953BE53A9588
:100DB1003C5021758220C006C005C004C002120645
:100DC100A1D002D004D005D006153B74FFB53B027B
:100DD100153C80CC853B31853C32EA601D75822D06
:100DE100C006C005C0041206A1D004D005D0061566
:100DF1003174FFB5310215328046E52C452D604036
:100E0100E526601D75822BC006C005C0041206A12F
:100E1100D004D005D006153174FFB53102153280EA
:100E21001FE527601B758220C006C005C00412069D
:100E3100A1D004D005D006153174FFB531021532A9
:100E4100EE703C85313B85323CAA3BAB3C153B7493
:100E5100FFB53B02153CC3E52C9AE52D9B5041EDB6
:100E610060067A307B0080047A207B008A82C0068B
:100E7100C005C0041206A1D004D005D00680CAC3A3
:100E8100E52C9531E52D9532500FE531C3952CF5C3
:100E910039E532952DF53A800DE4F539F53A8006BC
:100EA100853B39853C3AA930852C3B852D3CAA3BB5
:100EB100AD3C153B74FFB53B02153CEA4D602EEC91
:100EC100B40100E433FC700A09E7C4540FFD8D1C22
:100ED10080078705740F5DF51C851C82C006C00460
:100EE100C0011206C4D001D004D00680C1EE700347
:100EF100020753AD39AE3A8D038E041DBDFF011EAD
:100F0100EB4C7003020753758220C006C005120620
:100F1100A1D005D00680E08F821206A10207538579
:060F21001D82851E8322E3
:0B0FC8003C4E4F20464C4F41543E0071
:100F270020F71130F6138883A88220F509F6A883E5
:100F37007583002280FEF280F5F022E5828540F07D
:100F4700A4C582C0F08541F0A4D0F025F0C5838503
:080F570040F0A42583F583227C
:10003B007800E84400600A790175A000E4F309D860
:10004B00FC7800E84400600C7900900001E4F0A318
:04005B00D8FCD9FAFA
:100F5F00AA82AB83120F776003A380F8C3E5829A4E
:080F6F00F582E5839BF5832266
:0D000600758148120F93E58260030200032C
:100F770020F71430F6148883A88220F507E6A883A3
:100F870075830022E280F7E49322E0227582002233
:00000001FF
