:03000000020006F5
:03005F0002000399
:0300030002006296
:10006200750C10758202120443750D007582001220
:1000720004C574F3C0E0740DC0E07480C0E01206E1
:1000820074158115811581750D007582011204C5E3
:10009200740CC0E0740EC0E07480C0E07403C0E071
:1000A200740EC0E07480C0E0120674E58124FAF593
:1000B200817EFF7F7F8E048F051EBEFF011FEC4DE8
:1000C20060757582FFC007C00612034AD006D007CA
:1000D200750D0A758201C007C0061204C5741AC0E4
:1000E200E0740EC0E07480C0E07417C0E0740EC00B
:1000F200E07480C0E0120674E58124FAF581D0062E
:10010200D007750D0A758201C007C0061204C5D05A
:1001120006D007C007C006C006C0077421C0E0743D
:100122000EC0E07480C0E0120674E58124FBF58104
:09013200D006D0070200B780FEE0
:100DF30054484953204953204C494E452030310033
:100E0300257320202020202000496E7420746573F0
:100E1300743A200025730020202020202000256420
:010E230000CE
:10013B00AF82C292C291C290EF23540124FF92A7C7
:10014B00EF2323540124FF92A6EFA2E5E43324FF0F
:10015B0092A5EFC4540124FF92A4D292C292EFA2B3
:10016B00E3E43324FF92A7EF0303540124FF92A689
:10017B00EF03540124FF92A5EF540124FF92A4D264
:10018B0092C29222AF82C292C291C290EF235401CB
:10019B0024FF92A7EF2323540124FF92A6EFA2E59D
:1001AB00E43324FF92A5EFC4540124FF92A4D2920E
:1001BB00C29222AF82C292C291D290EF23540124F9
:1001CB00FF92A7EF2323540124FF92A6EFA2E5E4AD
:1001DB003324FF92A5EFC4540124FF92A4D292C200
:1001EB0092EFA2E3E43324FF92A7EF03035401241D
:1001FB00FF92A6EF03540124FF92A5EF540124FFB5
:10020B0092A4D292C29222D2A7D2A6D2A5D2A4C233
:10021B0092D291C290D29230A7067E807F0080044A
:10022B007E007F0030A6067D407F0080047D007F2E
:10023B0000ED4EFF30A5067D207E0080047D007E04
:10024B0000ED420730A4067D107E0080047D007E09
:10025B0000ED4207C292D29230A7067D087E008045
:10026B00047D007E00ED420730A6067D047E0080F3
:10027B00047D007E00ED420730A5067D027E0080E6
:10028B00047D007E00ED420730A4067D017E0080D8
:10029B00047D007E00ED4FF582C29222D2A7D2A63A
:1002AB00D2A5D2A4C292D291D290D29230A7067E7E
:1002BB00807F0080047E007F0030A6067D407F009B
:1002CB0080047D007F00ED4EFF30A5067D207E0073
:1002DB0080047D007E00ED420730A4067D107E0079
:1002EB0080047D007E00ED4207C292D29230A706B9
:1002FB007D087E0080047D007E00ED420730A6065F
:10030B007D047E0080047D007E00ED420730A50653
:10031B007D027E0080047D007E00ED420730A40646
:10032B007D017E0080047D007E00ED4FF582C29240
:10033B0022120212E58220E7F822AF82DFFE22AF03
:10034B00821FEF60087EFF1EEE60F680FA22758238
:10035B000112013B02033C75820212013B02033C7A
:10036B00AF82741F5F4420F58212013B02033CAF46
:10037B008274035F4404F58212013B02033CAF829B
:10038B0074075F4408F58212013B02033CAF827491
:10039B000C5F4410F58212013B02033CAD82AE832D
:1003AB00AFF07C00C3EC950A502CEC2DF9E43EFA2F
:1003BB008F0389828A838BF0120DD3F582C007C01D
:1003CB0006C005C0041201BE12033CD004D005D0F8
:1003DB0006D0070C80CE22AF8274804FF5821201BB
:1003EB003B02033CAD82AE83AFF07C00C3EC950BBC
:1003FB00502CEC2DF9E43EFA8F0389828A838BF023
:10040B00120DD3F582C007C006C005C0041201BE91
:10041B0012033CD004D005D006D0070C80CE22AFFF
:10042B0082743F5F4440F58212013B02033C12028F
:10043B0012E582547FF58222AF82C290C292C291A2
:10044B00850C088F09758237C00712034A758230F5
:10045B0012018F75820F12034A75823012018F754C
:10046B00825D12034575823012018F12033C758237
:10047B002012018FD007BF010875820012036B8019
:10048B000675820812036B758200120389120359D9
:10049B0075820212037A75820402038902035902E0
:1004AB0003627582040203897582000203897582D7
:1004BB0007020389758204020389AF827402B509AE
:1004CB000FBF0108AE0D74402EFE8034AE0D803090
:1004DB007404B50929BF01028018BF0202800BBF4B
:1004EB000318AF0D74542FFE8016AF0D74142FFE2E
:1004FB00800EAF0D74402FFE8006AE0D8002AE0D48
:10050B008E820203E2AD82AE83AFF0C007C006C09D
:10051B0005120439AC82D005D006D0077404B50996
:10052B000280030205CFEC24EC401C8D828E838F5E
:10053B00F0E4120D83A90EAA0FAB108C0089828AEE
:10054B00838BF0E8020D83BC14004024EC24D840CC
:10055B001F8D828E838FF07402120D83A90EAA0F4A
:10056B00AB108C00E824EC89828A838BF0020D831C
:10057B00BC40004024EC24AC401F8D828E838FF056
:10058B007401120D83A90EAA0FAB108C00E824C0C6
:10059B0089828A838BF0020D83BC5400500122ECBC
:1005AB0024985001228D828E838FF07403120D8359
:1005BB00A90EAA0FAB108C00E824AC89828A838B1E
:1005CB00F0020D837402B5094AEC24D8401C8D82CD
:1005DB008E838FF0E4120D83A90EAA0FAB108C0043
:1005EB0089828A838BF0E8020D83BC4000403EEC8D
:1005FB00249840398D828E838FF07401120D83A95C
:10060B000EAA0FAB108C00E824C089828A838BF072
:10061B00020D838D828E838FF0E4120D83AD0EAEAF
:10062B000FAF108D828E838FF0EC120D8322E5823B
:10063B00700675820802039875820C12039822E5E6
:10064B00827005F5820203987582041203982212B8
:10065B0001BE02033C85110A0203A7C040858140FD
:10066B001201BE12033CD04022C040E581F540246C
:10067B00FBFF8F25E4F51FF520F521E54024FBF862
:10068B008622088623088624900666120735D040FA
:01069B00223C
:06003500E478FFF6D8FD9F
:100013007900E94400601B7A00900E2F780175A0E7
:1000230000E493F2A308B8000205A0D9F4DAF2754C
:02003300A0FF2C
:10069C00AF82C015C016C0171206A98007C013C0C0
:1006AC00148F8222158115811581051DE4B51D025B
:1006BC00051E22AF8274302FFF24C6500B74072FF7
:1006CC00FFE51260034307208F8202069CE582FF40
:1006DC00C4540FF582C0071206BFD007740F5FF524
:1006EC00820206BF858241AB18AC19AD1AAE1BAAAB
:1006FC001C7543208A07EF2FF542EE235401454227
:10070C00FAEB2BFBEC33FCED33FDEE33FEC3EA9539
:10071C00414008EAC39541FA430301D543D68B18EF
:10072C008C198D1A8E1B8A1C228582138583148545
:10073C001F15852016852117E4F51DF51EAD22AE7B
:10074C0023AF248D828E838FF0120DD3FC74012D78
:10075C00F522E43EF5238F24ECFF7003020D7CBFE1
:10076C0025028003020D74E4F526F527F528F529FA
:10077C00F52AF52BF52CF52DF52FF53CF53D7530BF
:10078C00FF7531FF852236852337852438853682DF
:10079C008537838538F0120DD3F539A385823685DC
:1007AC0083378536228537238538247425B5390857
:1007BC0085398212069C808574D025395068E539BC
:1007CC0024C6406274FFB53036B53133853C418563
:1007DC003D4290000A120D9E85823A85833BAA39D0
:1007EC007E00EA253AFAEE353BFEEA24D0F53CEEE3
:1007FC0034FFF53DE53C453D7093752701808E85B2
:10080C00304185314290000A120D9EAE82AB83AA14
:10081C00397D00EA2EFEED3BFBEE24D0F530EB34B7
:10082C00FFF531020799742EB5391574FFB53005F3
:10083C00B531028003020799E4F530F531020799CE
:10084C00749F2539500EE539248540085339DF75DE
:10085C00120180037512007420B539030208FF746D
:10086C002BB539030208F9742DB53902807974421D
:10087C00B539030209057443B539030209117444EF
:10088C00B53903020A957446B53903020AAC7448AB
:10089C00B539030207997449B53903020A95744AAC
:1008AC00B53903020799744CB539028052744FB5AF
:1008BC003903020A9D7450B53903020A2A7453B5E0
:1008CC00390280627454B539030207997455B539ED
:1008DC0003020AA27458B53903020AA7745AB5392F
:1008EC0003020799020AB1752601020799752801BE
:1008FC00020799752901020799752B010207997551
:10090C002C01020799E52B600AE52514F989258746
:10091C0006800BE52524FEFB8B258B0187068E823A
:10092C0012069C020ABFE52524FDFE8E258E01874A
:10093C000209870309870619198A188B198E1A8AD6
:10094C00828B838EF0120DBB85823685833774FFC4
:10095C00B53009B53106853630853731E526703727
:10096C00C3E536953CE537953D502CE53CC39536B3
:10097C00F53AE53D9537F53BAA3AAE3B153A74FF8F
:10098C00B53A02153BEA4E600875822012069C802F
:10099C00E7853A3C853B3DAB30AE318518828519F5
:1009AC0083851AF0120DD3FA8A346034C3E49B7435
:1009BC00808EF063F08095F050261BBBFF011E85E6
:1009CC003482C006C00312069CD003D006AA18AC11
:1009DC0019AD1A0ABA00010C8A188C198D1A80BB31
:1009EC00E5267003020ABFC3E536953CE537953D15
:1009FC004003020ABFE53CC39536F53AE53D953711
:100A0C00F53BAA3AAE3B153A74FFB53A02153BEAF0
:100A1C004E7003020AB975822012069C80E4E5250B
:100A2C0024FDFE8E258E018702098703098706198E
:100A3C00198A188B198E1AAE1ABE800040047B439B
:100A4C008014BE600040047B50800BBE400040040C
:100A5C007B4980027B588B82C00312069C75823ABC
:100A6C0012069C75823012069C75827812069CD0F8
:100A7C0003BB4902800BBB5002800685198212060B
:100A8C00D98518821206D9802A752A01752F0A80F9
:100A9C0022752F08801D752F0A8018752F10801352
:100AAC00752D01800E85398212069C8006853A3C94
:100ABC00853B3DE52D6060E52524FCFE8E258E01F1
:100ACC00873C09873D09873E09873F191919853CE1
:100ADC0018853D19853E1A853F1B75182475190E0E
:100AEC00751A8085183C85193D851A3E7401253C84
:100AFC00FAE4353DFBAE3E8A188B198E1A853C8282
:100B0C00853D83853EF0120DD3FEFB700302074931
:100B1C008B8212069C80CCE52F7003020749E52BD3
:100B2C00602BE52514F9892587068E027B007D0054
:100B3C007E008A188B198D1A8E1BE52A7064AA18F0
:100B4C00FBFDFE8A188B198D1A8E1B8055E52C60C7
:100B5C0021E52524FCFE8E258E01870209870309D9
:100B6C0087050987061919198A188B198D1A8E1B76
:100B7C008030E52524FEFE8E258E0187030987062D
:100B8C0019EEFA3395E0FDFE8B188A198D1A8E1B1F
:100B9C00E52A700EAA18AB19FDFE8A188B198D1A4E
:100BAC008E1BE52A6023E51B30E71BC3E49518FB7D
:100BBC00E49519FCE4951AFDE4951BFE8B188C1931
:100BCC008D1A8E1B8003752A00752E0179497D00C4
:100BDC007E00751C00852F82C006C005C001120660
:100BEC00F0D001D005D006E52E7014E51CC454F0ED
:100BFC00FCE51CC4540F4204E7FB4CF7198002A718
:100C0C001C0DBD00010EE52EB40100E433F52EE5FC
:100C1C00184519451A451B70B989358D328E33E547
:100C2C003C453D7005753C01F53DE527702DE526ED
:100C3C007029AA3CAB3DAC320C7E00C3EC9AEE9B07
:100C4C005015758220C003C00212069CD002D0033E
:100C5C001ABAFF011B80DF8A3C8B3DE52A601175B7
:100C6C00822D12069C153C74FFB53C02153D802E5E
:100C7C00E53245336028E528601175822B12069CFD
:100C8C00153C74FFB53C02153D8013E529600F75CA
:100C9C00822012069C153C74FFB53C02153DE526DE
:100CAC007033AD3CAE3D8D038E041DBDFF011EC3E4
:100CBC00E5329BE5339C503EE52760067B307C009B
:100CCC0080047B207C008B82C006C00512069CD061
:100CDC0005D00680D1C3E532953CE533953D500FE8
:100CEC00E53CC39532F53CE53D9533F53D800BE491
:100CFC00F53CF53D80048D3C8E3DA935AD32AE33CF
:100D0C008D028E041DBDFF011EEA4C6030E52EB431
:100D1C000100E433F52E700A09E7C4540FFC8C1C57
:100D2C0080078704740F5CF51C851C82C006C00507
:100D3C00C0011206BFD001D005D00680C3E52670D5
:100D4C0003020749AD3CAE3D8D038E041DBDFF0172
:100D5C001EEB4C7003020749758220C006C00512B9
:100D6C00069CD005D00680E08F8212069C020749B3
:070D7C00851D82851E832204
:0B0E24003C4E4F20464C4F41543E0016
:100D830020F71130F6138883A88220F509F6A8838B
:100D93007583002280FEF280F5F022E5828541F022
:100DA300A4C582C0F08542F0A4D0F025F0C58385A8
:080DB30041F0A42583F5832221
:10003B007800E84400600A790175A000E4F309D860
:10004B00FC7800E84400600C7900900001E4F0A318
:04005B00D8FCD9FAFA
:100DBB00AA82AB83120DD36003A380F8C3E5829A9A
:080DCB00F582E5839BF583220C
:0D000600758149120DEFE5826003020003D1
:100DD30020F71430F6148883A88220F507E6A88349
:100DE30075830022E280F7E49322E02275820022D9
:00000001FF
