:03000000020006F5
:03005F0002000399
:0300030002006296
:10006200750C107582021203BC750D0075820012A8
:10007200043E746CC0E0740DC0E07480C0E01205F0
:10008200ED158115811581750D0075820112043EF1
:1000920074FFC0E0747FC0E0747CC0E0740DC0E007
:1000A2007480C0E01205EDE58124FBF58112043273
:0200B20080FECE
:100D6C0054484953204953204C494E4520303100BA
:0D0D7C00496E7420746573743A202564007C
:1000B400AF82C292C291C290EF23540124FF92A74F
:1000C400EF2323540124FF92A6EFA2E5E43324FF97
:1000D40092A5EFC4540124FF92A4D292C292EFA23B
:1000E400E3E43324FF92A7EF0303540124FF92A611
:1000F400EF03540124FF92A5EF540124FF92A4D2EC
:1001040092C29222AF82C292C291C290EF23540152
:1001140024FF92A7EF2323540124FF92A6EFA2E524
:10012400E43324FF92A5EFC4540124FF92A4D29295
:10013400C29222AF82C292C291D290EF2354012480
:10014400FF92A7EF2323540124FF92A6EFA2E5E434
:100154003324FF92A5EFC4540124FF92A4D292C287
:1001640092EFA2E3E43324FF92A7EF0303540124A4
:10017400FF92A6EF03540124FF92A5EF540124FF3C
:1001840092A4D292C29222D2A7D2A6D2A5D2A4C2BB
:1001940092D291C290D29230A7067E807F008004D2
:1001A4007E007F0030A6067D407F0080047D007FB6
:1001B40000ED4EFF30A5067D207E0080047D007E8C
:1001C40000ED420730A4067D107E0080047D007E91
:1001D40000ED4207C292D29230A7067D087E0080CD
:1001E400047D007E00ED420730A6067D047E00807B
:1001F400047D007E00ED420730A5067D027E00806E
:10020400047D007E00ED420730A4067D017E00805F
:10021400047D007E00ED4FF582C29222D2A7D2A6C1
:10022400D2A5D2A4C292D291D290D29230A7067E05
:10023400807F0080047E007F0030A6067D407F0022
:1002440080047D007F00ED4EFF30A5067D207E00FA
:1002540080047D007E00ED420730A4067D107E0000
:1002640080047D007E00ED4207C292D29230A70640
:100274007D087E0080047D007E00ED420730A606E6
:100284007D047E0080047D007E00ED420730A506DB
:100294007D027E0080047D007E00ED420730A406CE
:1002A4007D017E0080047D007E00ED4FF582C292C8
:1002B4002212018BE58220E7F822AF82DFFE22AF13
:1002C400821FEF60087EFF1EEE60F680FA227582C0
:1002D400011200B40202B57582021200B40202B522
:1002E400AF82741F5F4420F5821200B40202B5AFDE
:1002F4008274035F4404F5821200B40202B5AF8233
:1003040074075F4408F5821200B40202B5AF827428
:100314000C5F4410F5821200B40202B5AD82AE83C4
:10032400AFF07C00C3EC950A502CEC2DF9E43EFAB6
:100334008F0389828A838BF0120D4CF582C007C02B
:1003440006C005C0041201371202B5D004D005D08E
:1003540006D0070C80CE22AF8274804FF582120043
:10036400B40202B5AD82AE83AFF07C00C3EC950B52
:10037400502CEC2DF9E43EFA8F0389828A838BF0AA
:10038400120D4CF582C007C006C005C00412013727
:100394001202B5D004D005D006D0070C80CE22AF0F
:1003A40082743F5F4440F5821200B40202B5120128
:1003B4008BE582547FF58222AF82C290C292C291B1
:1003C400850C088F09758237C0071202C375823005
:1003D40012010875820F1202C3758230120108756A
:1003E400825D1202BE7582301201081202B5758256
:1003F40020120108D007BF01087582001202E480B0
:10040400067582081202E47582001203021202D2F7
:100414007582021202F37582040203020202D202FE
:1004240002DB7582040203027582000203027582F4
:1004340007020302758204020302AF827402B50943
:100444000FBF0108AE0D74402EFE8034AE0D803017
:100454007404B50929BF01028018BF0202800BBFD2
:100464000318AF0D74542FFE8016AF0D74142FFEB5
:10047400800EAF0D74402FFE8006AE0D8002AE0DCF
:100484008E8202035BAD82AE83AFF0C007C006C0AC
:10049400051203B2AC82D005D006D0077404B509A6
:1004A400028003020548EC24EC401C8D828E838F6D
:1004B400F0E4120CFCA90EAA0FAB108C0089828AFE
:1004C400838BF0E8020CFCBC14004024EC24D840DC
:1004D4001F8D828E838FF07402120CFCA90EAA0F5A
:1004E400AB108C00E824EC89828A838BF0020CFC2C
:1004F400BC40004024EC24AC401F8D828E838FF0DE
:100504007401120CFCA90EAA0FAB108C00E824C0D5
:1005140089828A838BF0020CFCBC5400500122ECCB
:1005240024985001228D828E838FF07403120CFC68
:10053400A90EAA0FAB108C00E824AC89828A838BA5
:10054400F0020CFC7402B5094AEC24D8401C8D82DC
:100554008E838FF0E4120CFCA90EAA0FAB108C0052
:1005640089828A838BF0E8020CFCBC4000403EEC9C
:10057400249840398D828E838FF07401120CFCA96B
:100584000EAA0FAB108C00E824C089828A838BF0FA
:10059400020CFC8D828E838FF0E4120CFCAD0EAE47
:1005A4000FAF108D828E838FF0EC120CFC22E5824B
:1005B400700675820802031175820C12031122E57C
:1005C400827005F58202031175820412031122124E
:1005D40001370202B585110A020320C0408581401B
:1005E4001201371202B5D04022C040E581F5402403
:1005F400FBFF8F25E4F51FF520F521E54024FBF8EA
:1006040086220886230886249005DF1206AED04091
:0106140022C3
:06003500E478FFF6D8FD9F
:100013007900E94400601B7A00900D94780175A083
:1000230000E493F2A308B8000205A0D9F4DAF2754C
:02003300A0FF2C
:10061500AF82C015C016C0171206228007C013C0CE
:10062500148F8222158115811581051DE4B51D02E2
:10063500051E22AF8274302FFF24C6500B74072F7E
:10064500FFE51260034307208F82020615E582FF4E
:10065500C4540FF582C007120638D007740F5FF532
:1006650082020638858241AB18AC19AD1AAE1BAAB9
:100675001C7543208A07EF2FF542EE2354014542AE
:10068500FAEB2BFBEC33FCED33FDEE33FEC3EA95C1
:10069500414008EAC39541FA430301D543D68B1877
:1006A5008C198D1A8E1B8A1C2285821385831485CD
:1006B5001F15852016852117E4F51DF51EAD22AE03
:1006C50023AF248D828E838FF0120D4CFC74012D87
:1006D500F522E43EF5238F24ECFF7003020CF5BFF1
:1006E50025028003020CEDE4F526F527F528F5290A
:1006F500F52AF52BF52CF52DF52FF53CF53D753047
:10070500FF7531FF85223685233785243885368266
:100715008537838538F0120D4CF539A385823685EA
:1007250083378536228537238538247425B53908DE
:10073500853982120615808574D025395068E539CA
:1007450024C6406274FFB53036B53133853C4185EA
:100755003D4290000A120D1785823A85833BAA39DE
:100765007E00EA253AFAEE353BFEEA24D0F53CEE6A
:1007750034FFF53DE53C453D7093752701808E8539
:10078500304185314290000A120D17AE82AB83AA23
:10079500397D00EA2EFEED3BFBEE24D0F530EB343F
:1007A500FFF531020712742EB5391574FFB5300502
:1007B500B531028003020712E4F530F53102071264
:1007C500749F2539500EE539248540085339DF7566
:1007D500120180037512007420B53903020878747C
:1007E5002BB53903020872742DB53902807974422C
:1007F500B5390302087E7443B5390302088A744487
:10080500B53903020A0E7446B53903020A25744840
:10081500B539030207127449B53903020A0E744A41
:10082500B53903020712744CB539028052744FB5BD
:100835003903020A167450B539030209A37453B576
:10084500390280627454B539030207127455B539FB
:1008550003020A1B7458B53903020A20745AB539C4
:1008650003020712020A2A752601020712752801DA
:10087500020712752901020712752B01020712756D
:100885002C01020712E52B600AE52514F989258755
:1008950006800BE52524FEFB8B258B0187068E82C2
:1008A500120615020A38E52524FDFE8E258E0187E0
:1008B5000209870309870619198A188B198E1A8A5E
:1008C500828B838EF0120D3485823685833774FFD3
:1008D500B53009B53106853630853731E5267037AF
:1008E500C3E536953CE537953D502CE53CC395363B
:1008F500F53AE53D9537F53BAA3AAE3B153A74FF17
:10090500B53A02153BEA4E6008758220120615803D
:10091500E7853A3C853B3DAB30AE3185188285197C
:1009250083851AF0120D4CFA8A346034C3E49B7443
:10093500808EF063F08095F050261BBBFF011E856D
:100945003482C006C003120615D003D006AA18AC1F
:1009550019AD1A0ABA00010C8A188C198D1A80BBB8
:10096500E5267003020A38C3E536953CE537953D23
:100975004003020A38E53CC39536F53AE53D95371F
:10098500F53BAA3AAE3B153A74FFB53A02153BEA78
:100995004E7003020A3275822012061580E4E525A1
:1009A50024FDFE8E258E0187020987030987061916
:1009B500198A188B198E1AAE1ABE800040047B4323
:1009C5008014BE600040047B50800BBE4000400494
:1009D5007B4980027B588B82C00312061575823ACB
:1009E500120615758230120615758278120615D015
:1009F50003BB4902800BBB50028006851982120693
:100A050052851882120652802A752A01752F0A808E
:100A150022752F08801D752F0A8018752F108013D9
:100A2500752D01800E8539821206158006853A3CA2
:100A3500853B3DE52D6060E52524FCFE8E258E0178
:100A4500873C09873D09873E09873F191919853C68
:100A550018853D19853E1A853F1B75188975190D31
:100A6500751A8085183C85193D851A3E7401253C0B
:100A7500FAE4353DFBAE3E8A188B198E1A853C8209
:100A8500853D83853EF0120D4CFEFB70030206C2C8
:100A95008B8212061580CCE52F70030206C2E52B6A
:100AA500602BE52514F9892587068E027B007D00DC
:100AB5007E008A188B198D1A8E1BE52A7064AA1878
:100AC500FBFDFE8A188B198D1A8E1B8055E52C604F
:100AD50021E52524FCFE8E258E0187020987030961
:100AE50087050987061919198A188B198D1A8E1BFE
:100AF5008030E52524FEFE8E258E018703098706B5
:100B050019EEFA3395E0FDFE8B188A198D1A8E1BA6
:100B1500E52A700EAA18AB19FDFE8A188B198D1AD5
:100B25008E1BE52A6023E51B30E71BC3E49518FB04
:100B3500E49519FCE4951AFDE4951BFE8B188C19B8
:100B45008D1A8E1B8003752A00752E0179497D004B
:100B55007E00751C00852F82C006C005C0011206E7
:100B650069D001D005D006E52E7014E51CC454F0FB
:100B7500FCE51CC4540F4204E7FB4CF7198002A79F
:100B85001C0DBD00010EE52EB40100E433F52EE584
:100B9500184519451A451B70B989358D328E33E5CF
:100BA5003C453D7005753C01F53DE527702DE52675
:100BB5007029AA3CAB3DAC320C7E00C3EC9AEE9B8F
:100BC5005015758220C003C002120615D002D0034D
:100BD5001ABAFF011B80DF8A3C8B3DE52A6011753F
:100BE500822D120615153C74FFB53C02153D802E6D
:100BF500E53245336028E528601175822B1206150C
:100C0500153C74FFB53C02153D8013E529600F7551
:100C15008220120615153C74FFB53C02153DE526EC
:100C25007033AD3CAE3D8D038E041DBDFF011EC36B
:100C3500E5329BE5339C503EE52760067B307C0022
:100C450080047B207C008B82C006C005120615D06F
:100C550005D00680D1C3E532953CE533953D500F6F
:100C6500E53CC39532F53CE53D9533F53D800BE418
:100C7500F53CF53D80048D3C8E3DA935AD32AE3356
:100C85008D028E041DBDFF011EEA4C6030E52EB4B9
:100C95000100E433F52E700A09E7C4540FFC8C1CDF
:100CA50080078704740F5CF51C851C82C006C0058F
:100CB500C001120638D001D005D00680C3E52670E4
:100CC500030206C2AD3CAE3D8D038E041DBDFF0182
:100CD5001EEB4C70030206C2758220C006C00512C9
:100CE5000615D005D00680E08F821206150206C2D1
:070CF500851D82851E83228C
:0B0D89003C4E4F20464C4F41543E00B2
:100CFC0020F71130F6138883A88220F509F6A88313
:100D0C007583002280FEF280F5F022E5828541F0A9
:100D1C00A4C582C0F08542F0A4D0F025F0C583852F
:080D2C0041F0A42583F58322A8
:10003B007800E84400600A790175A000E4F309D860
:10004B00FC7800E84400600C7900900001E4F0A318
:04005B00D8FCD9FAFA
:100D3400AA82AB83120D4C6003A380F8C3E5829AA8
:080D4400F582E5839BF5832293
:0D000600758149120D68E582600302000358
:100D4C0020F71430F6148883A88220F507E6A883D0
:100D5C0075830022E280F7E49322E0227582002260
:00000001FF
