:03000000020006F5
:0C005F007508A0750903750A80020003F3
:0300030002006B8D
:10006B00120129750D007582001200DF850882854B
:10007B000983850AF01202A29007D01203631201C2
:10008B00C2750D007582011200DF85088285098318
:10009B00850AF01202A29007D01203631201C275F7
:1000AB000D007582021200DF850882850983850A9F
:1000BB00F01202A29007D01203631201C2750D0059
:1000CB007582031200DF850882850983850AF01289
:0400DB0002A280FEFF
:0F03A0004F6C656420496E746572666163650019
:06003500E478FFF6D8FD9F
:1000DF00E582FF24F84042E50D2480403C8F0BAEB3
:1000EF000D8E0C758221C007C006120328D0068E14
:1000FF008212032875827F12032875822212032829
:10010F00D0078F8212032875820712032875827811
:10011F001202DB7582400202FB227582AE120328A7
:10012F007582D51203287582801203287582A81252
:10013F00032875821F1203287582D3120328758234
:10014F000012032875824012032875828D1203282E
:10015F0075821412032875822012032875820012EB
:10016F0003287582A11203287582C812032875828D
:10017F00DA1203287582021203287582811203286E
:10018F007582CF1203287582D91203287582F11256
:10019F0003287582DB1203287582401203287582AB
:1001AF00A41203287582A61203287582AF120328A2
:1001BF000201C2758221120328758200120328756D
:1001CF00827F120328758222120328758200120380
:1001DF00287582071203287582781202DB75824018
:1001EF001202FB7E007F00758200C007C00612025C
:1001FF00FBD006D0070EBE00010FC3EF64809484BE
:10020F0040E575822112032875820012032875823A
:10021F007F12032875822212032875820012032889
:10022F007582071203287582781202DB75824002ED
:10023F0002FBAF82AD0C7E0074052DFDE43EFEC3C4
:10024F00ED9480EE648094805003BF0A07C00712BC
:10025F0002CDD007BF0A0122EF24E075F005A424D8
:10026F00AFFE740335F0FF7D00ED2EF582E43FF510
:10027F0083E493F582C007C006C0051202FBD005C8
:10028F00D006D007050C0DBD05DF7582001202FBED
:10029F00050C22AD82AE83AFF08D828E838FF0126C
:1002AF000380FC60188C820DBD00010EC007C006D4
:1002BF00C005120241D005D006D00780DC22050B05
:1002CF00530B07750D00850B820200DFC2B6D2B645
:1002DF00D2B7C2B6C2B70202FBC2B6D2B7C2B6D24B
:1002EF00B622D2B6D2B720B6FDC2B722AF82C2B7FE
:1002FF007D077E00EE20E71E8DF005F0EF8002C334
:10030F0013D5F0FB5401FC24FF92B6D2B7C2B71D30
:10031F00BDFF011E80DE0202F1AF82758278C00739
:10032F001202DB7582001202FBD0078F821202FBD2
:03033F000202E8CF
:1003AF00000000000000002F0000000700070014ED
:1003BF007F147F14242A7F2A12231308646236497C
:1003CF005522500005030000001C2241000041226D
:1003DF001C0014083E081408083E08080000A0601E
:1003EF0000080808080800606000002010080402D8
:1003FF003E5149453E00427F4000426151494621EE
:10040F0041454B311814127F1027454545393C4A59
:10041F0049493001710905033649494936064949A9
:10042F00291E0036360000005636000008142241FF
:10043F000014141414140041221408020151090667
:10044F00324959513E7C1211127C7F494949363E3F
:10045F00414141227F4141221C7F494949417F0946
:10046F000909013E4149497A7F0808087F00417F09
:10047F0041002040413F017F081422417F4040400E
:10048F00407F020C027F7F0408107F3E4141413EB6
:10049F007F090909063E4151215E7F091929464608
:1004AF004949493101017F01013F4040403F1F2031
:1004BF0040201F3F4038403F631408146307087003
:1004CF0008076151494543007F41410055AA55AA8C
:1004DF00550041417F00040201020440404040406A
:1004EF00000305000020545454787F4844443838A2
:1004FF0044444420384444487F3854545418087EA8
:10050F0009010218A4A4A47C7F0804047800447D88
:10051F0040004080847D007F1028440000417F40D0
:10052F00007C041804787C08040478384444443868
:10053F00FC2424241818242418FC7C0804040848DC
:10054F0054545420043F4440203C4040207C1C2005
:10055F0040201C3C4030403C44281028441CA0A0A4
:10056F00A07C4464544C4400107C82000000FF00C7
:0B057F000000827C1000000609090645
:100013007900E94400601B7A0090058A780175A095
:1000230000E493F2A308B8000205A0D9F4DAF2754C
:02003300A0FF2C
:10003B007800E84400600A790175A000E4F309D860
:10004B00FC7800E84400600C7900900001E4F0A318
:04005B00D8FCD9FAFA
:10034200AF821FEF60077E03DEFE00DFF922AF827D
:100352001FEF7E2CDEFE0060077D30DDFE00DFF940
:1003620022AB82AC831BBBFF011CEB4C6008758285
:0E037200B812034280EF2200000000000022BB
:0D00060075810D12039CE58260030200036A
:1003800020F71430F6148883A88220F507E6A883A6
:1003900075830022E280F7E49322E0227582002236
:00000001FF
