:03000000020006F5
:0C005F00750818750904750A800200037A
:0300030002006B8D
:10006B001201A1750D00758200120157850882855A
:10007B000983850AF012031A9007D01203DB1202D0
:10008B003A750D0075820112015785088285098327
:10009B00850AF012031A9007D01203DB12023A758D
:1000AB000D00758202120157850882850983850A26
:1000BB00F012031A9007D01203DB12023A750D00EF
:1000CB00758203120157850882850983850AF01210
:1000DB00031A9007D01203DB12023A750D007582DA
:1000EB0004120157850882850983850AF012031AC9
:1000FB009007D01203DB12023A750D0075820512C0
:10010B000157850882850983850AF012031A900727
:10011B00D01203DB12023A750D00758206120157DD
:10012B00850882850983850AF012031A9007D0127D
:10013B0003DB12023A750D00758207120157850811
:0C014B0082850983850AF012031A80FEE9
:10041800313238783634204F6C656420496E746503
:06042800726661636500CD
:06003500E478FFF6D8FD9F
:10015700E582FF24F84042E50D2480403C8F0BAE3A
:100167000D8E0C758221C007C0061203A0D0068E23
:10017700821203A075827F1203A07582221203A048
:10018700D0078F821203A07582071203A0758278A9
:10019700120353758240020373227582AE1203A0C5
:1001A7007582D51203A07582801203A07582A812EA
:1001B70003A075823F1203A07582D31203A0758234
:1001C700001203A07582401203A075828D1203A04E
:1001D7007582141203A07582201203A07582001283
:1001E70003A07582A11203A07582C81203A07582AD
:1001F700DA1203A07582121203A07582811203A07E
:100207007582CF1203A07582D91203A07582F112ED
:1002170003A07582DB1203A07582401203A07582CA
:10022700A41203A07582A61203A07582AF1203A0C1
:1002370002023A7582211203A07582001203A0758B
:10024700827F1203A07582221203A0758200120317
:10025700A07582071203A075827812035375824036
:100267001203737E007F00758200C007C006120369
:1002770073D006D0070EBE00010FC3EF64809484CD
:1002870040E57582211203A07582001203A07582D2
:100297007F1203A07582221203A07582001203A0A9
:1002A7007582071203A07582781203537582400284
:1002B7000373AF82AD0C7E0074052DFDE43EFEC3D3
:1002C700ED9480EE648094805003BF0A07C0071244
:1002D7000345D007BF0A0122EF24E075F005A424E7
:1002E7002EFE740435F0FF7D00ED2EF582E43FF518
:1002F70083E493F582C007C006C005120373D005D7
:10030700D006D007050C0DBD05DF758200120373FB
:10031700050C22AD82AE83AFF08D828E838FF012F3
:1003270003F8FC60188C820DBD00010EC007C006E3
:10033700C0051202B9D005D006D00780DC22050B14
:10034700530B07750D00850B82020157C2B6D2B653
:10035700D2B7C2B6C2B7020373C2B6D2B7C2B6D259
:10036700B622D2B6D2B720B6FDC2B722AF82C2B785
:100377007D077E00EE20E71E8DF005F0EF8002C3BB
:1003870013D5F0FB5401FC24FF92B6D2B7C2B71DB8
:10039700BDFF011E80DE020369AF82758278C00748
:1003A700120353758200120373D0078F82120373EF
:0303B700020360DE
:10042E00000000000000002F00000007000700146D
:10043E007F147F14242A7F2A1223130864623649FC
:10044E005522500005030000001C224100004122ED
:10045E001C0014083E081408083E08080000A0609E
:10046E000008080808080060600000201008040258
:10047E003E5149453E00427F40004261514946216E
:10048E0041454B311814127F1027454545393C4ADA
:10049E00494930017109050336494949360649492A
:1004AE00291E003636000000563600000814224180
:1004BE0000141414141400412214080201510906E8
:1004CE00324959513E7C1211127C7F494949363EC0
:1004DE00414141227F4141221C7F494949417F09C7
:1004EE000909013E4149497A7F0808087F00417F8A
:1004FE0041002040413F017F081422417F4040408F
:10050E00407F020C027F7F0408107F3E4141413E36
:10051E007F090909063E4151215E7F091929464688
:10052E004949493101017F01013F4040403F1F20B1
:10053E0040201F3F4038403F631408146307087083
:10054E0008076151494543007F41410055AA55AA0C
:10055E00550041417F0004020102044040404040EA
:10056E00000305000020545454787F484444383822
:10057E0044444420384444487F3854545418087E28
:10058E0009010218A4A4A47C7F0804047800447D09
:10059E0040004080847D007F1028440000417F4051
:1005AE00007C041804787C080404783844444438E9
:1005BE00FC2424241818242418FC7C08040408485D
:1005CE0054545420043F4440203C4040207C1C2086
:1005DE0040201C3C4030403C44281028441CA0A025
:1005EE00A07C4464544C4400107C82000000FF0048
:0B05FE000000827C10000006090906C6
:100013007900E94400601B7A00900609780175A015
:1000230000E493F2A308B8000205A0D9F4DAF2754C
:02003300A0FF2C
:10003B007800E84400600A790175A000E4F309D860
:10004B00FC7800E84400600C7900900001E4F0A318
:04005B00D8FCD9FAFA
:1003BA00AF821FEF60077E03DEFE00DFF922AF8205
:1003CA001FEF7E2CDEFE0060077D30DDFE00DFF9C8
:1003DA0022AB82AC831BBBFF011CEB4C600875820D
:0E03EA00B81203BA80EF2200000000000022CB
:0D00060075810D120414E5826003020003F1
:1003F80020F71430F6148883A88220F507E6A8832E
:1004080075830022E280F7E49322E02275820022BD
:00000001FF
