:03000000020006F5
:03006B000200038D
:0300030002006E8A
:0B006E001200E77582411201B380FE12
:0C005F00750808750904750A02750B008D
:10007900AF82C0071201C212021CD007E50B4FF56F
:10008900821202220201E0AF82C007120079D00772
:1000990074044FF582C007120079D00774FB4FF53D
:1000A90082020079AF8274F05FF582C00712009076
:1000B900D007EFC454F0FF74F05FF582020090AFEF
:1000C9008274F05F4401F582C007120090D007EFF7
:1000D900C454F0FF74F05F4401F5820200901201EC
:1000E900B890C335120278850B8212007990C33516
:1000F90012027875823012009090104D12027875B4
:10010900823012009090104D1202787582301200E0
:100119009090001712027890004912027875822097
:100129001200907508087582281200AD750904122D
:10013900017412014A750A027582061200AD0201A4
:10014900567582011200AD9007B5020278758202D8
:100159001200AD9007B5020278AF82E50C03035493
:10016900C02FFE74804EF5820200ADE5094408F502
:10017900820200AD5309FBE5094408F5820200AD8E
:10018900430902E5094408F5820200AD5309FDE57A
:10019900094408F5820200AD750B00758200020062
:1001A90079750B087582000200790200C80022D215
:1001B900B61201B6D2B70201B6C2B61201B6C2B7BB
:1001C9000201B6D2B61201B6D2B71201B6C2B61240
:1001D90001B6C2B70201B6C2B71201B6C2B6120160
:1001E900B6D2B71201B6D2B60201B6C2B61201B67C
:1001F900D2B71201B6C2B71201B6D2B60201B6D24F
:10020900B61201B6D2B71201B6C2B71201B6D2B64A
:100219000201B675827E020222AF827E00EF30E7CC
:1002290004D2B68002C2B61201B6D2B71201B6C262
:10023900B78F05ED2DFF0EBE080040E1D2B61201C1
:10024900B6D2B7A2B6E433FF1201B6C2B78F822283
:100259007F007E008F05ED2DFDA2B6E4334DFFD260
:0F026900B71201B6C2B70EBE080040E88F82225E
:06003500E478FFF6D8FD9F
:100013007900E94400601B7A009002B6780175A06C
:1000230000E493F2A308B8000205A0D9F4DAF2754C
:02003300A0FF2C
:10003B007800E84400600A790175A000E4F309D860
:10004B00FC7800E84400600C7900900001E4F0A318
:04005B00D8FCD9FAFA
:10027800AE82AF83C3E49EFEE49FFFC28C8F8C8E58
:100288008AD28C108D0280FB00000022AE82AF83E0
:10029800EE4F60159003E8C007C006120278D0063A
:0A02A800D0071EBEFF011F80E722F1
:0D00060075810C1202B2E582600302000356
:0402B200758200222F
:00000001FF
