:03000000020006F5
:03006B000200038D
:0300030002006E8A
:0B006E0012011E7582411201E480FEA9
:0C005F00750808750904750A02750B008D
:10007900AE82AF83C3E49EFEE49FFFC28C8F8C8E59
:100089008AD28C108D0280FB22AE82AF83EE4F6044
:10009900159003E8C007C006120079D006D0071EE4
:1000A900BEFF011F80E722AF82C0071201F31202CF
:1000B9004DD007E50B4FF582120253020211AF82B0
:1000C900C0071200B0D00774044FF582C0071200B0
:1000D900B0D00774FB4FF5820200B0AF8274F05FB5
:1000E900F582C0071200C7D007EFC454F0FF74F0BF
:1000F9005FF5820200C7AF8274F05F4401F582C0E8
:10010900071200C7D007EFC454F0FF74F05F440131
:10011900F5820200C71201E9900032120092850BA4
:10012900821200B09003E81200927582301200C763
:100139009000051200927582301200C790000512D6
:1001490000927582301200C79000011200927582E8
:10015900201200C77508087582281200E475090481
:100169001201A512017B750A027582061200E402CA
:1001790001877582011200E49000020200927582E3
:10018900021200E4900002020092AF82E50C030320
:1001990054C02FFE74804EF5820200E4E50944083C
:1001A900F5820200E45309FBE5094408F5820200DF
:1001B900E4430902E5094408F5820200E45309FD14
:1001C900E5094408F5820200E4750B007582000216
:1001D90000B0750B087582000200B00200FF002212
:1001E900D2B61201E7D2B70201E7C2B61201E7C2DD
:1001F900B70201E7D2B61201E7D2B71201E7C2B6D8
:100209001201E7C2B70201E7C2B71201E7C2B6128B
:1002190001E7D2B71201E7D2B60201E7C2B612016D
:10022900E7D2B71201E7C2B71201E7D2B60201E776
:10023900D2B61201E7D2B71201E7C2B71201E7D26B
:10024900B60201E775827E020253AF827E00EF306B
:10025900E704D2B68002C2B61201E7D2B71201E7AB
:10026900C2B78F05ED2DFF0EBE080040E1D2B612D0
:1002790001E7D2B7A2B6E433FF1201E7C2B78F8212
:10028900227F007E008F05ED2DFDA2B6E4334DFFE0
:10029900D2B71201E7C2B70EBE080040E88F82222A
:06003500E478FFF6D8FD9F
:100013007900E94400601B7A009002AD780175A075
:1000230000E493F2A308B8000205A0D9F4DAF2754C
:02003300A0FF2C
:10003B007800E84400600A790175A000E4F309D860
:10004B00FC7800E84400600C7900900001E4F0A318
:04005B00D8FCD9FAFA
:0D00060075810C1202A9E58260030200035F
:0402A9007582002238
:00000001FF
