:03000000020006F5
:03006B000200038D
:0300030002006E8A
:10006E00750C04750D02750E0875820812018290CA
:10007E0003F475F08012027A750F01758200120278
:10008E000090040575F08012027A9007D01203B723
:10009E001201F490041675F08012027A750F017534
:1000AE00820012020090042775F08012027A9007E7
:1000BE00D01203B71201F490043875F08012027A50
:1000CE00750F0175820012020090044975F08012BE
:1000DE00027A9007D01203B77E007F00C3EE940E13
:1000EE00EF9400501B75822EC007C0061202779047
:1000FE0000FA1203B7D006D0070EBE00DF0F80DC69
:06010E001201F402007D65
:1003F4004142434445464748494A4B4C4D4E4F5071
:10040400005152535455565857595A6162636465A2
:1004140066006768696A6B6C6D6E6F707172737475
:100424007576007877797A3132333435363738391E
:10043400302E2C002D3E3C2F5C7C213F28293D2B67
:0804440040232426002A5F007A
:0C005F00750800750904750A02750B088D
:10011400AF82C0071202C312031DD007E50B4FF5CF
:10012400821203230202E1AF82C007120114D00736
:1001340074044FF582C007120114D00774FB4FF505
:1001440082020114AF8274F05FF582C00712012BA2
:10015400D007EFC454F0FF74F05FF58202012BAFB7
:100164008274F05F4401F582C00712012BD007EFBF
:10017400C454F0FF74F05F4401F58202012B8582C0
:1001840008850C09850D0A850E0B1202B990003200
:100194001203B7850B821201149000321203B77553
:1001A400823012012B9000051203B77582301201C0
:1001B4002B9000051203B775823012012B75821E35
:1001C40012039675822012012BE5084420F5821251
:1001D40001481202381201E8E50A4404F5821201CA
:1001E400480201F47582011201489000020203B72B
:1001F4007582021201489000020203B7AF828F0693
:10020400E50830E3277401B50F02801C7402B50FB2
:1002140002800D7403B50F148F0574542DFE800CE9
:100224008F0574142DFE800474402FFE74804EF5E7
:1002340082020148E5094408F5820201485309FB9A
:10024400E5094408F582020148430902E509440826
:10025400F5820201485309FDE5094408F5820201CB
:1002640048750B08758200020114750B0075820035
:10027400020114020163AD82AE83AFF07B007C0007
:10028400EB2DF8EC3EF98F02888289838AF0120301
:10029400D4FA60208A82C007C006C005C004C00327
:1002A400120163D003D004D005D006D0070BBB00E5
:1002B400CF0C80CC22D2B61203CDD2B70203CDC26A
:1002C400B61203CDC2B70203CDD2B61203CDD2B754
:1002D4001203CDC2B61203CDC2B70203CDC2B71208
:1002E40003CDC2B61203CDD2B71203CDD2B60203E8
:1002F400CDC2B61203CDD2B71203CDC2B71203CD0D
:10030400D2B60203CDD2B61203CDD2B71203CDC2F8
:10031400B71203CDD2B60203CD75827E020323AF9A
:10032400827E00EF30E704D2B68002C2B6C007C0B6
:10033400061203CDD2B71203CDC2B71203CDD00635
:10034400D0078F05ED2DFF0EBE080040D6D2B612A1
:1003540003CDD2B7A2B6E433FFC0071203CDC2B7B0
:100364001203CDD0078F82227F007E008F05ED2DF2
:10037400FDA2B6E4334DFFD2B7C007C0061203CDC9
:10038400C2B71203CDD006D0070EBE080040DD8FE1
:020394008222C3
:06003500E478FFF6D8FD9F
:10039600AF821FEF60077E03DEFE00DFF922AF8229
:1003A6001FEF7E2CDEFE0060077D30DDFE00DFF9EC
:1003B60022AB82AC831BBBFF011CEB4C6008758231
:0E03C600B812039680EF220000000000002213
:100013007900E94400601B7A0090044C780175A0D4
:1000230000E493F2A308B8000205A0D9F4DAF2754C
:02003300A0FF2C
:10003B007800E84400600A790175A000E4F309D860
:10004B00FC7800E84400600C7900900001E4F0A318
:04005B00D8FCD9FAFA
:0D00060075810F1203F0E582600302000314
:1003D40020F71430F6148883A88220F507E6A88352
:1003E40075830022E280F7E49322E02275820022E2
:00000001FF
