:03000000020006F5
:03006B000200038D
:0300030002006E8A
:10006E001201769003B975F08012023F750C01757E
:10007E0082001201EB9003CA75F08012023F9007C6
:10008E00D012037C1201DF9003DB75F08012023F69
:10009E00750C017582001201EB9003EC75F0801265
:1000AE00023F9007D012037C1201DF9003FD75F022
:1000BE008012023F750C017582001201EB90040E46
:1000CE0075F08012023F9007D012037C7E007F00F5
:1000DE00C3EE940EEF9400501B75822EC007C0061F
:1000EE0012023C9000FA12037CD006D0070EBE001E
:0A00FE00DF0F80DC1201DF02007149
:1003B9004142434445464748494A4B4C4D4E4F50AC
:1003C900005152535455565857595A6162636465DE
:1003D90066006768696A6B6C6D6E6F7071727374B1
:1003E9007576007877797A3132333435363738395A
:1003F900302E2C002D3E3C2F5C7C213F28293D2BA3
:0804090040232426002A5F00B5
:0C005F00750800750904750A02750B088D
:10010800AF82C0071202881202E2D007E50B4FF552
:10011800821202E80202A6AF82C007120108D007C5
:1001280074044FF582C007120108D00774FB4FF51D
:1001380082020108AF8274F05FF582C00712011FC6
:10014800D007EFC454F0FF74F05FF58202011FAFCF
:100158008274F05F4401F582C00712011FD007EFD7
:10016800C454F0FF74F05F4401F58202011F1202CB
:100178007E90003212037C850B82120108900032B7
:1001880012037C75823012011F90000512037C75E2
:10019800823012011F90000512037C758230120113
:1001A8001F75821E12035B75822012011F750808D5
:1001B80075822812013C7509041201FD1201D375DC
:1001C8000A0275820612013C0201DF7582011201E2
:1001D8003C90000202037C75820212013C900002EE
:1001E80002037CAF82E50C030354C02FFE74804EDB
:1001F800F58202013CE5094408F58202013C5309F5
:10020800FBE5094408F58202013C430902E509447B
:1002180008F58202013C5309FDE5094408F582020C
:10022800013C750B08758200020108750B00758288
:1002380000020108020157AD82AE83AFF07B007C5B
:1002480000EB2DF8EC3EF98F02888289838AF01240
:100258000399FA60208A82C007C006C005C004C09E
:1002680003120157D003D004D005D006D0070BBB2A
:1002780000CF0C80CC22D2B6120392D2B7020392DE
:10028800C2B6120392C2B7020392D2B6120392D236
:10029800B7120392C2B6120392C2B7020392C2B750
:1002A800120392C2B6120392D2B7120392D2B602C6
:1002B8000392C2B6120392D2B7120392C2B71203C4
:1002C80092D2B6020392D2B6120392D2B712039216
:1002D800C2B7120392D2B602039275827E0202E876
:1002E800AF827E00EF30E704D2B68002C2B6C00704
:1002F800C006120392D2B7120392C2B7120392D069
:1003080006D0078F05ED2DFF0EBE080040D6D2B6E9
:10031800120392D2B7A2B6E433FFC007120392C207
:10032800B7120392D0078F82227F007E008F05EDDF
:100338002DFDA2B6E4334DFFD2B7C007C0061203A5
:1003480092C2B7120392D006D0070EBE080040DD55
:030358008F82226F
:06003500E478FFF6D8FD9F
:10035B00AF821FEF60077E03DEFE00DFF922AF8264
:10036B001FEF7E2CDEFE0060077D30DDFE00DFF927
:10037B0022AB82AC831BBBFF011CEB4C600875826C
:0E038B00B812035B80EF220000000000002289
:100013007900E94400601B7A00900411780175A00F
:1000230000E493F2A308B8000205A0D9F4DAF2754C
:02003300A0FF2C
:10003B007800E84400600A790175A000E4F309D860
:10004B00FC7800E84400600C7900900001E4F0A318
:04005B00D8FCD9FAFA
:0D00060075810C1203B5E582600302000352
:1003990020F71430F6148883A88220F507E6A8838D
:1003A90075830022E280F7E49322E022758200221D
:00000001FF
