:03000000020006F5
:03006B000200038D
:0300030002006E8A
:10006E00750C04750D02750E0875820812016790E5
:10007E0003D975F08012025F750F017582001201AF
:10008E00E59003EE75F08012025F9007D012039C8C
:10009E00750F027582001201E590040375F080124F
:1000AE00025F750F037582001201E590041875F05A
:1000BE008012025F9007D012039C1201CD7E007F4A
:1000CE0000C3EE9414EF9400501B75822EC007C02F
:1000DE000612025C9000FA12039CD006D0070EBEE8
:0B00EE0000DF0F80DC1201CD02007D5E
:1003D9004142434445464748494A4B4C4D4E4F508C
:1003E900515253540055565857595A6162636465BE
:1003F900666768696A6B6C6D6E006F707172737491
:1004090075767877797A3132333435363738003939
:10041900302E2C2D3E3C2B2F40262125275B5D7B42
:040429007D5F7C0077
:0C005F00750800750904750A02750B088D
:1000F900AF82C0071202A8120302D007E50B4FF521
:10010900821203080202C6AF82C0071200F9D007A3
:1001190074044FF582C0071200F9D00774FB4FF53C
:10012900820200F9AF8274F05FF582C007120110F4
:10013900D007EFC454F0FF74F05FF582020110AFED
:100149008274F05F4401F582C007120110D007EFF5
:10015900C454F0FF74F05F4401F5820201108582F6
:1001690008850C09850D0A850E0B12029E90003236
:1001790012039C850B821200F990003212039C75C0
:10018900823012011090000512039C758230120111
:100199001090000512039C75823012011075821EA1
:1001A90012037B758220120110E5084420F58212A2
:1001B900012D12021D1201CDE50A4404F582120136
:1001C9002D0201D975820112012D90000202039CB2
:1001D90075820212012D90000202039CAF828F06E4
:1001E900E50830E3277401B50F02801C7402B50FCE
:1001F90002800D7403B50F148F0574542DFE800C05
:100209008F0574142DFE800474402FFE74804EF502
:100219008202012DE5094408F58202012D5309FBEB
:10022900E5094408F58202012D430902E50944085C
:10023900F58202012D5309FDE5094408F582020101
:100249002D750B087582000200F9750B0075820087
:100259000200F9020148AD82AE83AFF07B007C0059
:10026900EB2DF8EC3EF98F02888289838AF012031C
:10027900B9FA60208A82C007C006C005C004C0035D
:10028900120148D003D004D005D006D0070BBB001B
:10029900CF0C80CC22D2B61203B2D2B70203B2C2BB
:1002A900B61203B2C2B70203B2D2B61203B2D2B7C0
:1002B9001203B2C2B61203B2C2B70203B2C2B71274
:1002C90003B2C2B61203B2D2B71203B2D2B6020354
:1002D900B2C2B61203B2D2B71203B2C2B71203B294
:1002E900D2B60203B2D2B61203B2D2B71203B2C265
:1002F900B71203B2D2B60203B275824E020308AF37
:10030900827E00EF30E704D2B68002C2B6C007C0D1
:10031900061203B2D2B71203B2C2B71203B2D006A1
:10032900D0078F05ED2DFF0EBE080040D6D2B612BC
:1003390003B2D2B7A2B6E433FFC0071203B2C2B701
:100349001203B2D0078F82227F007E008F05ED2D28
:10035900FDA2B6E4334DFFD2B7C007C0061203B2FF
:10036900C2B71203B2D006D0070EBE080040DD8F17
:020379008222DE
:06003500E478FFF6D8FD9F
:10037B00AF821FEF60077E03DEFE00DFF922AF8244
:10038B001FEF7E2CDEFE0060077D30DDFE00DFF907
:10039B0022AB82AC831BBBFF011CEB4C600875824C
:0E03AB00B812037B80EF220000000000002249
:100013007900E94400601B7A0090042D780175A0F3
:1000230000E493F2A308B8000205A0D9F4DAF2754C
:02003300A0FF2C
:10003B007800E84400600A790175A000E4F309D860
:10004B00FC7800E84400600C7900900001E4F0A318
:04005B00D8FCD9FAFA
:0D00060075810F1203D5E58260030200032F
:1003B90020F71430F6148883A88220F507E6A8836D
:1003C90075830022E280F7E49322E02275820022FD
:00000001FF
