:03000000020006F5
:03006B000200038D
:0300030002006E8A
:10006E00750C04750D02750E087582081201B89094
:10007E00042175F0801202A7750F0175820012021D
:10008E002D90043675F0801202A79007D01203E46B
:10009E00750F0275820012022D90044B75F08012BE
:1000AE0002A7750F0375820012022D90046075F081
:1000BE00801202A79007D01203E412021B7E007F6B
:1000CE0000C3EE9414EF9400501B75822EC007C02F
:1000DE00061202A49000FA1203E4D006D0070EBE58
:0B00EE0000DF0F80DC12021B02007D0F
:100421004142434445464748494A4B4C4D4E4F5043
:10043100515253540055565857595A616263646575
:10044100666768696A6B6C6D6E006F707172737448
:1004510075767877797A31323334353637380039F1
:10046100302E2C2D3E3C2B2F40262125275B5D7BFA
:040471007D5F7C002F
:0C005F00750800750904750A02750B088D
:1000F900AF82C0071202F012034AD007E50B4FF591
:100109008212035002030EAF82C0071200F9D00712
:1001190074044FF582C0071200F9D00774FB4FF53C
:10012900820200F97F00EF30E04A900476E493F50B
:1001390082120110120399900475E493F582120159
:1001490010120399900476E493F5821201101203B8
:1001590099900475E493F5821201101203999004A1
:1001690076E493F582120110120399E582FE235475
:1001790001FF80B222AF8274F05FF582C0071201DD
:1001890010D007EFC454F0FF74F05FF5820201103C
:10019900AF8274F05F4401F582C007120110D007E5
:1001A900EFC454F0FF74F05F4401F5820201108539
:1001B9008208850C09850D0A850E0B1202E690004E
:1001C900321203E4850B821200F99000321203E423
:1001D9007582301201109000051203E47582301205
:1001E90001109000051203E475823012011012010A
:1001F9002D758220120110E5084420F58212017E36
:1002090012026512021BE50A4404F58212017E02FC
:10021900022475820112017E02012D7582021201EA
:100229007E02012DAF828F06E50830E3277401B500
:100239000F02801C7402B50F02800D7403B50F14F0
:100249008F0574542DFE800C8F0574142DFE8004C7
:1002590074402FFE74804EF58202017EE509440840
:10026900F58202017E5309FBE5094408F582020182
:100279007E430902E5094408F58202017E5309FD1E
:10028900E5094408F58202017E750B0875820002B2
:1002990000F9750B007582000200F9020199AD821F
:1002A900AE83AFF07B007C00EB2DF8EC3EF98F02BA
:1002B900888289838AF0120401FA60208A82C00741
:1002C900C006C005C004C003120199D003D004D0F0
:0D02D90005D006D0070BBB00CF0C80CC2257
:02047500F6F29D
:1002E600D2B61203FAD2B70203FAC2B61203FAC2A0
:1002F600B70203FAD2B61203FAD2B71203FAC2B69B
:100306001203FAC2B70203FAC2B71203FAC2B6124E
:1003160003FAD2B71203FAD2B60203FAC2B612032E
:10032600FAD2B71203FAC2B71203FAD2B60203FA26
:10033600D2B61203FAD2B71203FAC2B71203FAD22E
:10034600B60203FA75824E020350AF827E00EF308A
:10035600E704D2B68002C2B6C007C0061203FAD2BC
:10036600B71203FAC2B71203FAD006D0078F05ED0B
:100376002DFF0EBE080040D6D2B61203FAD2B7A29F
:10038600B6E433FFC0071203FAC2B71203FAD00766
:100396008F82227F007E008F05ED2DFDA2B6E4330D
:1003A6004DFFD2B7C007C0061203FAC2B71203FA4E
:0D03B600D006D0070EBE080040DD8F822269
:06003500E478FFF6D8FD9F
:100013007900E94400601B7A00900477780175A0A9
:1000230000E493F2A308B8000205A0D9F4DAF2754C
:02003300A0FF2C
:10003B007800E84400600A790175A000E4F309D860
:10004B00FC7800E84400600C7900900001E4F0A318
:04005B00D8FCD9FAFA
:1003C300AF821FEF60077E03DEFE00DFF922AF82FC
:1003D3001FEF7E2CDEFE0060077D30DDFE00DFF9BF
:1003E30022AB82AC831BBBFF011CEB4C6008758204
:0E03F300B81203C380EF2200000000000022B9
:0D00060075810F12041DE5826003020003E6
:1004010020F71430F6148883A88220F507E6A88324
:1004110075830022E280F7E49322E02275820022B4
:00000001FF
